{
    "contractName": "ZwZToken",
    "abi": [
        {
            "inputs": [],
            "stateMutability": "nonpayable",
            "type": "constructor"
        },
        {
            "anonymous": false,
            "inputs": [
                {
                    "indexed": false,
                    "internalType": "bool",
                    "name": "enable",
                    "type": "bool"
                }
            ],
            "name": "AntibotEnabled",
            "type": "event"
        },
        {
            "anonymous": false,
            "inputs": [
                {
                    "indexed": true,
                    "internalType": "address",
                    "name": "owner",
                    "type": "address"
                },
                {
                    "indexed": true,
                    "internalType": "address",
                    "name": "spender",
                    "type": "address"
                },
                {
                    "indexed": false,
                    "internalType": "uint256",
                    "name": "value",
                    "type": "uint256"
                }
            ],
            "name": "Approval",
            "type": "event"
        },
        {
            "anonymous": false,
            "inputs": [
                {
                    "indexed": true,
                    "internalType": "address",
                    "name": "previousOwner",
                    "type": "address"
                },
                {
                    "indexed": true,
                    "internalType": "address",
                    "name": "newOwner",
                    "type": "address"
                }
            ],
            "name": "OwnershipTransferred",
            "type": "event"
        },
        {
            "anonymous": false,
            "inputs": [
                {
                    "indexed": true,
                    "internalType": "address",
                    "name": "from",
                    "type": "address"
                },
                {
                    "indexed": true,
                    "internalType": "address",
                    "name": "to",
                    "type": "address"
                },
                {
                    "indexed": false,
                    "internalType": "uint256",
                    "name": "value",
                    "type": "uint256"
                }
            ],
            "name": "Transfer",
            "type": "event"
        },
        {
            "anonymous": false,
            "inputs": [
                {
                    "indexed": false,
                    "internalType": "address[]",
                    "name": "newWhiteList",
                    "type": "address[]"
                },
                {
                    "indexed": false,
                    "internalType": "address[]",
                    "name": "removedWhiteList",
                    "type": "address[]"
                }
            ],
            "name": "WhiteListUpdate",
            "type": "event"
        },
        {
            "inputs": [
                {
                    "internalType": "address",
                    "name": "owner",
                    "type": "address"
                },
                {
                    "internalType": "address",
                    "name": "spender",
                    "type": "address"
                }
            ],
            "name": "allowance",
            "outputs": [
                {
                    "internalType": "uint256",
                    "name": "",
                    "type": "uint256"
                }
            ],
            "stateMutability": "view",
            "type": "function"
        },
        {
            "inputs": [],
            "name": "antiBotEnabled",
            "outputs": [
                {
                    "internalType": "bool",
                    "name": "",
                    "type": "bool"
                }
            ],
            "stateMutability": "view",
            "type": "function"
        },
        {
            "inputs": [
                {
                    "internalType": "address",
                    "name": "spender",
                    "type": "address"
                },
                {
                    "internalType": "uint256",
                    "name": "amount",
                    "type": "uint256"
                }
            ],
            "name": "approve",
            "outputs": [
                {
                    "internalType": "bool",
                    "name": "",
                    "type": "bool"
                }
            ],
            "stateMutability": "nonpayable",
            "type": "function"
        },
        {
            "inputs": [
                {
                    "internalType": "address",
                    "name": "account",
                    "type": "address"
                }
            ],
            "name": "balanceOf",
            "outputs": [
                {
                    "internalType": "uint256",
                    "name": "",
                    "type": "uint256"
                }
            ],
            "stateMutability": "view",
            "type": "function"
        },
        {
            "inputs": [
                {
                    "internalType": "uint256",
                    "name": "amount",
                    "type": "uint256"
                }
            ],
            "name": "burn",
            "outputs": [],
            "stateMutability": "nonpayable",
            "type": "function"
        },
        {
            "inputs": [
                {
                    "internalType": "address",
                    "name": "account",
                    "type": "address"
                },
                {
                    "internalType": "uint256",
                    "name": "amount",
                    "type": "uint256"
                }
            ],
            "name": "burnFrom",
            "outputs": [],
            "stateMutability": "nonpayable",
            "type": "function"
        },
        {
            "inputs": [],
            "name": "decimals",
            "outputs": [
                {
                    "internalType": "uint8",
                    "name": "",
                    "type": "uint8"
                }
            ],
            "stateMutability": "view",
            "type": "function"
        },
        {
            "inputs": [
                {
                    "internalType": "address",
                    "name": "spender",
                    "type": "address"
                },
                {
                    "internalType": "uint256",
                    "name": "subtractedValue",
                    "type": "uint256"
                }
            ],
            "name": "decreaseAllowance",
            "outputs": [
                {
                    "internalType": "bool",
                    "name": "",
                    "type": "bool"
                }
            ],
            "stateMutability": "nonpayable",
            "type": "function"
        },
        {
            "inputs": [
                {
                    "internalType": "address",
                    "name": "spender",
                    "type": "address"
                },
                {
                    "internalType": "uint256",
                    "name": "addedValue",
                    "type": "uint256"
                }
            ],
            "name": "increaseAllowance",
            "outputs": [
                {
                    "internalType": "bool",
                    "name": "",
                    "type": "bool"
                }
            ],
            "stateMutability": "nonpayable",
            "type": "function"
        },
        {
            "inputs": [],
            "name": "maxSupply",
            "outputs": [
                {
                    "internalType": "uint256",
                    "name": "",
                    "type": "uint256"
                }
            ],
            "stateMutability": "view",
            "type": "function"
        },
        {
            "inputs": [
                {
                    "internalType": "address[]",
                    "name": "newWhiteList",
                    "type": "address[]"
                },
                {
                    "internalType": "address[]",
                    "name": "removedWhiteList",
                    "type": "address[]"
                }
            ],
            "name": "modifyWhiteList",
            "outputs": [],
            "stateMutability": "nonpayable",
            "type": "function"
        },
        {
            "inputs": [],
            "name": "name",
            "outputs": [
                {
                    "internalType": "string",
                    "name": "",
                    "type": "string"
                }
            ],
            "stateMutability": "view",
            "type": "function"
        },
        {
            "inputs": [],
            "name": "owner",
            "outputs": [
                {
                    "internalType": "address",
                    "name": "",
                    "type": "address"
                }
            ],
            "stateMutability": "view",
            "type": "function"
        },
        {
            "inputs": [],
            "name": "renounceOwnership",
            "outputs": [],
            "stateMutability": "nonpayable",
            "type": "function"
        },
        {
            "inputs": [
                {
                    "internalType": "bool",
                    "name": "_enable",
                    "type": "bool"
                }
            ],
            "name": "setAntiBot",
            "outputs": [],
            "stateMutability": "nonpayable",
            "type": "function"
        },
        {
            "inputs": [],
            "name": "symbol",
            "outputs": [
                {
                    "internalType": "string",
                    "name": "",
                    "type": "string"
                }
            ],
            "stateMutability": "view",
            "type": "function"
        },
        {
            "inputs": [],
            "name": "totalSupply",
            "outputs": [
                {
                    "internalType": "uint256",
                    "name": "",
                    "type": "uint256"
                }
            ],
            "stateMutability": "view",
            "type": "function"
        },
        {
            "inputs": [
                {
                    "internalType": "address",
                    "name": "recipient",
                    "type": "address"
                },
                {
                    "internalType": "uint256",
                    "name": "amount",
                    "type": "uint256"
                }
            ],
            "name": "transfer",
            "outputs": [
                {
                    "internalType": "bool",
                    "name": "",
                    "type": "bool"
                }
            ],
            "stateMutability": "nonpayable",
            "type": "function"
        },
        {
            "inputs": [
                {
                    "internalType": "address",
                    "name": "sender",
                    "type": "address"
                },
                {
                    "internalType": "address",
                    "name": "recipient",
                    "type": "address"
                },
                {
                    "internalType": "uint256",
                    "name": "amount",
                    "type": "uint256"
                }
            ],
            "name": "transferFrom",
            "outputs": [
                {
                    "internalType": "bool",
                    "name": "",
                    "type": "bool"
                }
            ],
            "stateMutability": "nonpayable",
            "type": "function"
        },
        {
            "inputs": [
                {
                    "internalType": "address",
                    "name": "newOwner",
                    "type": "address"
                }
            ],
            "name": "transferOwnership",
            "outputs": [],
            "stateMutability": "nonpayable",
            "type": "function"
        },
        {
            "inputs": [
                {
                    "internalType": "address",
                    "name": "",
                    "type": "address"
                }
            ],
            "name": "whiteList",
            "outputs": [
                {
                    "internalType": "bool",
                    "name": "",
                    "type": "bool"
                }
            ],
            "stateMutability": "view",
            "type": "function"
        }
    ],
    "bytecode": "60806040526007805460ff191660011790553480156200001e57600080fd5b506040518060400160405280600e81526020016d2d37b6b134b2902bb7b93632102d60911b815250604051806040016040528060038152602001622d3bad60e91b8152506b033b2e3c9fd0803ce800000033838381600390805190602001906200008a92919062000258565b508051620000a090600490602084019062000258565b505050620000b581836200011a60201b60201c565b50505050620000d3620000cd6200020260201b60201c565b62000206565b600160066000620000ec6005546001600160a01b031690565b6001600160a01b031681526020810191909152604001600020805460ff191691151591909117905562000362565b6001600160a01b038216620001755760405162461bcd60e51b815260206004820152601f60248201527f45524332303a206d696e7420746f20746865207a65726f206164647265737300604482015260640160405180910390fd5b8060026000828254620001899190620002fe565b90915550506001600160a01b03821660009081526020819052604081208054839290620001b8908490620002fe565b90915550506040518181526001600160a01b038316906000907fddf252ad1be2c89b69c2b068fc378daa952ba7f163c4a11628f55a4df523b3ef9060200160405180910390a35050565b3390565b600580546001600160a01b038381166001600160a01b0319831681179093556040519116919082907f8be0079c531659141344cd1fd0a4f28419497f9722a3daafe3b4186f6b6457e090600090a35050565b828054620002669062000325565b90600052602060002090601f0160209004810192826200028a5760008555620002d5565b82601f10620002a557805160ff1916838001178555620002d5565b82800160010185558215620002d5579182015b82811115620002d5578251825591602001919060010190620002b8565b50620002e3929150620002e7565b5090565b5b80821115620002e35760008155600101620002e8565b600082198211156200032057634e487b7160e01b600052601160045260246000fd5b500190565b600181811c908216806200033a57607f821691505b602082108114156200035c57634e487b7160e01b600052602260045260246000fd5b50919050565b61113c80620003726000396000f3fe608060405234801561001057600080fd5b50600436106101375760003560e01c8063715018a6116100b8578063a9059cbb1161007c578063a9059cbb14610289578063c2c7c03a1461029c578063d5abeb01146102af578063d8c6404b146102c2578063dd62ed3e146102cf578063f2fde38b1461030857600080fd5b8063715018a61461023857806379cc6790146102405780638da5cb5b1461025357806395d89b411461026e578063a457c2d71461027657600080fd5b8063313ce567116100ff578063313ce567146101b7578063372c12b1146101c657806339509351146101e957806342966c68146101fc57806370a082311461020f57600080fd5b806306fdde031461013c578063095ea7b31461015a57806318160ddd1461017d57806323b872dd1461018f5780632adb5f4e146101a2575b600080fd5b61014461031b565b6040516101519190610fcb565b60405180910390f35b61016d610168366004610e81565b6103ad565b6040519015158152602001610151565b6002545b604051908152602001610151565b61016d61019d366004610e45565b6103c3565b6101b56101b0366004610eab565b610472565b005b60405160128152602001610151565b61016d6101d4366004610df0565b60066020526000908152604090205460ff1681565b61016d6101f7366004610e81565b6105c5565b6101b561020a366004610f39565b610601565b61018161021d366004610df0565b6001600160a01b031660009081526020819052604090205490565b6101b561060e565b6101b561024e366004610e81565b610644565b6005546040516001600160a01b039091168152602001610151565b6101446106ca565b61016d610284366004610e81565b6106d9565b61016d610297366004610e81565b610772565b6101b56102aa366004610f17565b61077f565b6101816b033b2e3c9fd0803ce800000081565b60075461016d9060ff1681565b6101816102dd366004610e12565b6001600160a01b03918216600090815260016020908152604080832093909416825291909152205490565b6101b5610316366004610df0565b6107f0565b60606003805461032a90611084565b80601f016020809104026020016040519081016040528092919081815260200182805461035690611084565b80156103a35780601f10610378576101008083540402835291602001916103a3565b820191906000526020600020905b81548152906001019060200180831161038657829003601f168201915b5050505050905090565b60006103ba338484610888565b50600192915050565b60006103d08484846109ac565b6001600160a01b03841660009081526001602090815260408083203384529091529020548281101561045a5760405162461bcd60e51b815260206004820152602860248201527f45524332303a207472616e7366657220616d6f756e74206578636565647320616044820152676c6c6f77616e636560c01b60648201526084015b60405180910390fd5b6104678533858403610888565b506001949350505050565b6005546001600160a01b0316331461049c5760405162461bcd60e51b815260040161045190611020565b60005b8381101561050e576001600660008787858181106104bf576104bf6110f0565b90506020020160208101906104d49190610df0565b6001600160a01b031681526020810191909152604001600020805460ff191691151591909117905580610506816110bf565b91505061049f565b5060005b8181101561058157600060066000858585818110610532576105326110f0565b90506020020160208101906105479190610df0565b6001600160a01b031681526020810191909152604001600020805460ff191691151591909117905580610579816110bf565b915050610512565b507f9824340d355882c6f24a03cf203373acc1041a901e7908f36040d1463ccc3e91848484846040516105b79493929190610f99565b60405180910390a150505050565b3360008181526001602090815260408083206001600160a01b038716845290915281205490916103ba9185906105fc908690611055565b610888565b61060b3382610a19565b50565b6005546001600160a01b031633146106385760405162461bcd60e51b815260040161045190611020565b6106426000610b67565b565b600061065083336102dd565b9050818110156106ae5760405162461bcd60e51b8152602060048201526024808201527f45524332303a206275726e20616d6f756e74206578636565647320616c6c6f77604482015263616e636560e01b6064820152608401610451565b6106bb8333848403610888565b6106c58383610a19565b505050565b60606004805461032a90611084565b3360009081526001602090815260408083206001600160a01b03861684529091528120548281101561075b5760405162461bcd60e51b815260206004820152602560248201527f45524332303a2064656372656173656420616c6c6f77616e63652062656c6f77604482015264207a65726f60d81b6064820152608401610451565b6107683385858403610888565b5060019392505050565b60006103ba3384846109ac565b6005546001600160a01b031633146107a95760405162461bcd60e51b815260040161045190611020565b6007805460ff19168215159081179091556040519081527f4b683e173dee68d952d619638abca9a2aca56c6369610067d042ccd583924b469060200160405180910390a150565b6005546001600160a01b0316331461081a5760405162461bcd60e51b815260040161045190611020565b6001600160a01b03811661087f5760405162461bcd60e51b815260206004820152602660248201527f4f776e61626c653a206e6577206f776e657220697320746865207a65726f206160448201526564647265737360d01b6064820152608401610451565b61060b81610b67565b6001600160a01b0383166108ea5760405162461bcd60e51b8152602060048201526024808201527f45524332303a20617070726f76652066726f6d20746865207a65726f206164646044820152637265737360e01b6064820152608401610451565b6001600160a01b03821661094b5760405162461bcd60e51b815260206004820152602260248201527f45524332303a20617070726f766520746f20746865207a65726f206164647265604482015261737360f01b6064820152608401610451565b6001600160a01b0383811660008181526001602090815260408083209487168084529482529182902085905590518481527f8c5be1e5ebec7d5bd14f71427d1e84f3dd0314c0f7b2291e5b200ac8c7c3b925910160405180910390a3505050565b6001600160a01b03831660009081526006602052604090205460ff1680156109d7575060075460ff16155b610a0e5760405162461bcd60e51b8152602060048201526008602482015267105b9d1a48109bdd60c21b6044820152606401610451565b6106c5838383610bb9565b6001600160a01b038216610a795760405162461bcd60e51b815260206004820152602160248201527f45524332303a206275726e2066726f6d20746865207a65726f206164647265736044820152607360f81b6064820152608401610451565b6001600160a01b03821660009081526020819052604090205481811015610aed5760405162461bcd60e51b815260206004820152602260248201527f45524332303a206275726e20616d6f756e7420657863656564732062616c616e604482015261636560f01b6064820152608401610451565b6001600160a01b0383166000908152602081905260408120838303905560028054849290610b1c90849061106d565b90915550506040518281526000906001600160a01b038516907fddf252ad1be2c89b69c2b068fc378daa952ba7f163c4a11628f55a4df523b3ef9060200160405180910390a3505050565b600580546001600160a01b038381166001600160a01b0319831681179093556040519116919082907f8be0079c531659141344cd1fd0a4f28419497f9722a3daafe3b4186f6b6457e090600090a35050565b6001600160a01b038316610c1d5760405162461bcd60e51b815260206004820152602560248201527f45524332303a207472616e736665722066726f6d20746865207a65726f206164604482015264647265737360d81b6064820152608401610451565b6001600160a01b038216610c7f5760405162461bcd60e51b815260206004820152602360248201527f45524332303a207472616e7366657220746f20746865207a65726f206164647260448201526265737360e81b6064820152608401610451565b6001600160a01b03831660009081526020819052604090205481811015610cf75760405162461bcd60e51b815260206004820152602660248201527f45524332303a207472616e7366657220616d6f756e7420657863656564732062604482015265616c616e636560d01b6064820152608401610451565b6001600160a01b03808516600090815260208190526040808220858503905591851681529081208054849290610d2e908490611055565b92505081905550826001600160a01b0316846001600160a01b03167fddf252ad1be2c89b69c2b068fc378daa952ba7f163c4a11628f55a4df523b3ef84604051610d7a91815260200190565b60405180910390a350505050565b80356001600160a01b0381168114610d9f57600080fd5b919050565b60008083601f840112610db657600080fd5b50813567ffffffffffffffff811115610dce57600080fd5b6020830191508360208260051b8501011115610de957600080fd5b9250929050565b600060208284031215610e0257600080fd5b610e0b82610d88565b9392505050565b60008060408385031215610e2557600080fd5b610e2e83610d88565b9150610e3c60208401610d88565b90509250929050565b600080600060608486031215610e5a57600080fd5b610e6384610d88565b9250610e7160208501610d88565b9150604084013590509250925092565b60008060408385031215610e9457600080fd5b610e9d83610d88565b946020939093013593505050565b60008060008060408587031215610ec157600080fd5b843567ffffffffffffffff80821115610ed957600080fd5b610ee588838901610da4565b90965094506020870135915080821115610efe57600080fd5b50610f0b87828801610da4565b95989497509550505050565b600060208284031215610f2957600080fd5b81358015158114610e0b57600080fd5b600060208284031215610f4b57600080fd5b5035919050565b8183526000602080850194508260005b85811015610f8e576001600160a01b03610f7b83610d88565b1687529582019590820190600101610f62565b509495945050505050565b604081526000610fad604083018688610f52565b8281036020840152610fc0818587610f52565b979650505050505050565b600060208083528351808285015260005b81811015610ff857858101830151858201604001528201610fdc565b8181111561100a576000604083870101525b50601f01601f1916929092016040019392505050565b6020808252818101527f4f776e61626c653a2063616c6c6572206973206e6f7420746865206f776e6572604082015260600190565b60008219821115611068576110686110da565b500190565b60008282101561107f5761107f6110da565b500390565b600181811c9082168061109857607f821691505b602082108114156110b957634e487b7160e01b600052602260045260246000fd5b50919050565b60006000198214156110d3576110d36110da565b5060010190565b634e487b7160e01b600052601160045260246000fd5b634e487b7160e01b600052603260045260246000fdfea2646970667358221220e8c115fa45e1cced7d19fcd15a09f54d048e6c15ec4abcef0ce6e050b22ac3b564736f6c63430008070033",
    "sourcePath": "/Users/hieunmce/workspace/zwz-tokenimic/src/ZwZToken.sol",
    "compiler": {
        "name": "solc",
        "version": "0.8.7+commit.e28d00a7"
    },
    "functionHashes": {
        "allowance(address,address)": "dd62ed3e",
        "antiBotEnabled()": "d8c6404b",
        "approve(address,uint256)": "095ea7b3",
        "balanceOf(address)": "70a08231",
        "burn(uint256)": "42966c68",
        "burnFrom(address,uint256)": "79cc6790",
        "decimals()": "313ce567",
        "decreaseAllowance(address,uint256)": "a457c2d7",
        "increaseAllowance(address,uint256)": "39509351",
        "maxSupply()": "d5abeb01",
        "modifyWhiteList(address[],address[])": "2adb5f4e",
        "name()": "06fdde03",
        "owner()": "8da5cb5b",
        "renounceOwnership()": "715018a6",
        "setAntiBot(bool)": "c2c7c03a",
        "symbol()": "95d89b41",
        "totalSupply()": "18160ddd",
        "transfer(address,uint256)": "a9059cbb",
        "transferFrom(address,address,uint256)": "23b872dd",
        "transferOwnership(address)": "f2fde38b",
        "whiteList(address)": "372c12b1"
    },
    "gasEstimates": {
        "creation": {
            "codeDepositCost": "882400",
            "executionCost": "infinite",
            "totalCost": "infinite"
        },
        "external": {
            "allowance(address,address)": "infinite",
            "antiBotEnabled()": "2398",
            "approve(address,uint256)": "24642",
            "balanceOf(address)": "2651",
            "burn(uint256)": "50938",
            "burnFrom(address,uint256)": "77539",
            "decimals()": "200",
            "decreaseAllowance(address,uint256)": "26999",
            "increaseAllowance(address,uint256)": "27001",
            "maxSupply()": "261",
            "modifyWhiteList(address[],address[])": "infinite",
            "name()": "infinite",
            "owner()": "2368",
            "renounceOwnership()": "28140",
            "setAntiBot(bool)": "27737",
            "symbol()": "infinite",
            "totalSupply()": "2349",
            "transfer(address,uint256)": "55570",
            "transferFrom(address,address,uint256)": "infinite",
            "transferOwnership(address)": "28444",
            "whiteList(address)": "2576"
        },
        "internal": {
            "_transfer(address,address,uint256)": "infinite"
        }
    }
}