{
  "address": "0x8Bb029B4015eD31e1f2c55DA8fF72B1Deb58BA2B",
  "abi": [
    {
      "inputs": [],
      "stateMutability": "nonpayable",
      "type": "constructor"
    },
    {
      "anonymous": false,
      "inputs": [
        {
          "indexed": false,
          "internalType": "bool",
          "name": "enable",
          "type": "bool"
        }
      ],
      "name": "AntibotEnabled",
      "type": "event"
    },
    {
      "anonymous": false,
      "inputs": [
        {
          "indexed": true,
          "internalType": "address",
          "name": "owner",
          "type": "address"
        },
        {
          "indexed": true,
          "internalType": "address",
          "name": "spender",
          "type": "address"
        },
        {
          "indexed": false,
          "internalType": "uint256",
          "name": "value",
          "type": "uint256"
        }
      ],
      "name": "Approval",
      "type": "event"
    },
    {
      "anonymous": false,
      "inputs": [
        {
          "indexed": true,
          "internalType": "address",
          "name": "previousOwner",
          "type": "address"
        },
        {
          "indexed": true,
          "internalType": "address",
          "name": "newOwner",
          "type": "address"
        }
      ],
      "name": "OwnershipTransferred",
      "type": "event"
    },
    {
      "anonymous": false,
      "inputs": [
        {
          "indexed": true,
          "internalType": "address",
          "name": "from",
          "type": "address"
        },
        {
          "indexed": true,
          "internalType": "address",
          "name": "to",
          "type": "address"
        },
        {
          "indexed": false,
          "internalType": "uint256",
          "name": "value",
          "type": "uint256"
        }
      ],
      "name": "Transfer",
      "type": "event"
    },
    {
      "anonymous": false,
      "inputs": [
        {
          "indexed": false,
          "internalType": "address[]",
          "name": "newWhiteList",
          "type": "address[]"
        },
        {
          "indexed": false,
          "internalType": "address[]",
          "name": "removedWhiteList",
          "type": "address[]"
        }
      ],
      "name": "WhiteListUpdate",
      "type": "event"
    },
    {
      "inputs": [
        {
          "internalType": "address",
          "name": "owner",
          "type": "address"
        },
        {
          "internalType": "address",
          "name": "spender",
          "type": "address"
        }
      ],
      "name": "allowance",
      "outputs": [
        {
          "internalType": "uint256",
          "name": "",
          "type": "uint256"
        }
      ],
      "stateMutability": "view",
      "type": "function"
    },
    {
      "inputs": [],
      "name": "antiBotEnabled",
      "outputs": [
        {
          "internalType": "bool",
          "name": "",
          "type": "bool"
        }
      ],
      "stateMutability": "view",
      "type": "function"
    },
    {
      "inputs": [
        {
          "internalType": "address",
          "name": "spender",
          "type": "address"
        },
        {
          "internalType": "uint256",
          "name": "amount",
          "type": "uint256"
        }
      ],
      "name": "approve",
      "outputs": [
        {
          "internalType": "bool",
          "name": "",
          "type": "bool"
        }
      ],
      "stateMutability": "nonpayable",
      "type": "function"
    },
    {
      "inputs": [
        {
          "internalType": "address",
          "name": "account",
          "type": "address"
        }
      ],
      "name": "balanceOf",
      "outputs": [
        {
          "internalType": "uint256",
          "name": "",
          "type": "uint256"
        }
      ],
      "stateMutability": "view",
      "type": "function"
    },
    {
      "inputs": [
        {
          "internalType": "uint256",
          "name": "amount",
          "type": "uint256"
        }
      ],
      "name": "burn",
      "outputs": [],
      "stateMutability": "nonpayable",
      "type": "function"
    },
    {
      "inputs": [
        {
          "internalType": "address",
          "name": "account",
          "type": "address"
        },
        {
          "internalType": "uint256",
          "name": "amount",
          "type": "uint256"
        }
      ],
      "name": "burnFrom",
      "outputs": [],
      "stateMutability": "nonpayable",
      "type": "function"
    },
    {
      "inputs": [],
      "name": "decimals",
      "outputs": [
        {
          "internalType": "uint8",
          "name": "",
          "type": "uint8"
        }
      ],
      "stateMutability": "view",
      "type": "function"
    },
    {
      "inputs": [
        {
          "internalType": "address",
          "name": "spender",
          "type": "address"
        },
        {
          "internalType": "uint256",
          "name": "subtractedValue",
          "type": "uint256"
        }
      ],
      "name": "decreaseAllowance",
      "outputs": [
        {
          "internalType": "bool",
          "name": "",
          "type": "bool"
        }
      ],
      "stateMutability": "nonpayable",
      "type": "function"
    },
    {
      "inputs": [
        {
          "internalType": "address",
          "name": "spender",
          "type": "address"
        },
        {
          "internalType": "uint256",
          "name": "addedValue",
          "type": "uint256"
        }
      ],
      "name": "increaseAllowance",
      "outputs": [
        {
          "internalType": "bool",
          "name": "",
          "type": "bool"
        }
      ],
      "stateMutability": "nonpayable",
      "type": "function"
    },
    {
      "inputs": [],
      "name": "maxSupply",
      "outputs": [
        {
          "internalType": "uint256",
          "name": "",
          "type": "uint256"
        }
      ],
      "stateMutability": "view",
      "type": "function"
    },
    {
      "inputs": [
        {
          "internalType": "address[]",
          "name": "newWhiteList",
          "type": "address[]"
        },
        {
          "internalType": "address[]",
          "name": "removedWhiteList",
          "type": "address[]"
        }
      ],
      "name": "modifyWhiteList",
      "outputs": [],
      "stateMutability": "nonpayable",
      "type": "function"
    },
    {
      "inputs": [],
      "name": "name",
      "outputs": [
        {
          "internalType": "string",
          "name": "",
          "type": "string"
        }
      ],
      "stateMutability": "view",
      "type": "function"
    },
    {
      "inputs": [],
      "name": "owner",
      "outputs": [
        {
          "internalType": "address",
          "name": "",
          "type": "address"
        }
      ],
      "stateMutability": "view",
      "type": "function"
    },
    {
      "inputs": [],
      "name": "renounceOwnership",
      "outputs": [],
      "stateMutability": "nonpayable",
      "type": "function"
    },
    {
      "inputs": [
        {
          "internalType": "bool",
          "name": "_enable",
          "type": "bool"
        }
      ],
      "name": "setAntiBot",
      "outputs": [],
      "stateMutability": "nonpayable",
      "type": "function"
    },
    {
      "inputs": [],
      "name": "symbol",
      "outputs": [
        {
          "internalType": "string",
          "name": "",
          "type": "string"
        }
      ],
      "stateMutability": "view",
      "type": "function"
    },
    {
      "inputs": [],
      "name": "totalSupply",
      "outputs": [
        {
          "internalType": "uint256",
          "name": "",
          "type": "uint256"
        }
      ],
      "stateMutability": "view",
      "type": "function"
    },
    {
      "inputs": [
        {
          "internalType": "address",
          "name": "recipient",
          "type": "address"
        },
        {
          "internalType": "uint256",
          "name": "amount",
          "type": "uint256"
        }
      ],
      "name": "transfer",
      "outputs": [
        {
          "internalType": "bool",
          "name": "",
          "type": "bool"
        }
      ],
      "stateMutability": "nonpayable",
      "type": "function"
    },
    {
      "inputs": [
        {
          "internalType": "address",
          "name": "sender",
          "type": "address"
        },
        {
          "internalType": "address",
          "name": "recipient",
          "type": "address"
        },
        {
          "internalType": "uint256",
          "name": "amount",
          "type": "uint256"
        }
      ],
      "name": "transferFrom",
      "outputs": [
        {
          "internalType": "bool",
          "name": "",
          "type": "bool"
        }
      ],
      "stateMutability": "nonpayable",
      "type": "function"
    },
    {
      "inputs": [
        {
          "internalType": "address",
          "name": "newOwner",
          "type": "address"
        }
      ],
      "name": "transferOwnership",
      "outputs": [],
      "stateMutability": "nonpayable",
      "type": "function"
    },
    {
      "inputs": [
        {
          "internalType": "address",
          "name": "",
          "type": "address"
        }
      ],
      "name": "whiteList",
      "outputs": [
        {
          "internalType": "bool",
          "name": "",
          "type": "bool"
        }
      ],
      "stateMutability": "view",
      "type": "function"
    }
  ],
  "transactionHash": "0xa88d31978c9e64750910c058583d67261fd517e4a1939f1c9f8b0b13abe9c2a1",
  "args": [],
  "solcInputHash": "8100805d05a75250a89170a58f8204de",
  "bytecode": "0x60806040526001600760006101000a81548160ff0219169083151502179055506b033b2e3c9fd0803ce80000006008553480156200003c57600080fd5b506040518060400160405280600e81526020017f5a6f6d62696520576f726c64205a0000000000000000000000000000000000008152506040518060400160405280600381526020017f5a775a00000000000000000000000000000000000000000000000000000000008152506008543383838160039080519060200190620000c792919062000401565b508060049080519060200190620000e092919062000401565b505050620000f581836200018660201b60201c565b50505050620001196200010d620002ff60201b60201c565b6200030760201b60201c565b6001600660006200012f620003cd60201b60201c565b73ffffffffffffffffffffffffffffffffffffffff1673ffffffffffffffffffffffffffffffffffffffff16815260200190815260200160002060006101000a81548160ff0219169083151502179055506200065d565b600073ffffffffffffffffffffffffffffffffffffffff168273ffffffffffffffffffffffffffffffffffffffff161415620001f9576040517f08c379a0000000000000000000000000000000000000000000000000000000008152600401620001f090620004e9565b60405180910390fd5b6200020d60008383620003f760201b60201c565b806002600082825462000221919062000539565b92505081905550806000808473ffffffffffffffffffffffffffffffffffffffff1673ffffffffffffffffffffffffffffffffffffffff168152602001908152602001600020600082825462000278919062000539565b925050819055508173ffffffffffffffffffffffffffffffffffffffff16600073ffffffffffffffffffffffffffffffffffffffff167fddf252ad1be2c89b69c2b068fc378daa952ba7f163c4a11628f55a4df523b3ef83604051620002df91906200050b565b60405180910390a3620002fb60008383620003fc60201b60201c565b5050565b600033905090565b6000600560009054906101000a900473ffffffffffffffffffffffffffffffffffffffff16905081600560006101000a81548173ffffffffffffffffffffffffffffffffffffffff021916908373ffffffffffffffffffffffffffffffffffffffff1602179055508173ffffffffffffffffffffffffffffffffffffffff168173ffffffffffffffffffffffffffffffffffffffff167f8be0079c531659141344cd1fd0a4f28419497f9722a3daafe3b4186f6b6457e060405160405180910390a35050565b6000600560009054906101000a900473ffffffffffffffffffffffffffffffffffffffff16905090565b505050565b505050565b8280546200040f90620005a0565b90600052602060002090601f0160209004810192826200043357600085556200047f565b82601f106200044e57805160ff19168380011785556200047f565b828001600101855582156200047f579182015b828111156200047e57825182559160200191906001019062000461565b5b5090506200048e919062000492565b5090565b5b80821115620004ad57600081600090555060010162000493565b5090565b6000620004c0601f8362000528565b9150620004cd8262000634565b602082019050919050565b620004e38162000596565b82525050565b600060208201905081810360008301526200050481620004b1565b9050919050565b6000602082019050620005226000830184620004d8565b92915050565b600082825260208201905092915050565b6000620005468262000596565b9150620005538362000596565b9250827fffffffffffffffffffffffffffffffffffffffffffffffffffffffffffffffff038211156200058b576200058a620005d6565b5b828201905092915050565b6000819050919050565b60006002820490506001821680620005b957607f821691505b60208210811415620005d057620005cf62000605565b5b50919050565b7f4e487b7100000000000000000000000000000000000000000000000000000000600052601160045260246000fd5b7f4e487b7100000000000000000000000000000000000000000000000000000000600052602260045260246000fd5b7f45524332303a206d696e7420746f20746865207a65726f206164647265737300600082015250565b612511806200066d6000396000f3fe608060405234801561001057600080fd5b50600436106101375760003560e01c8063715018a6116100b8578063a9059cbb1161007c578063a9059cbb14610350578063c2c7c03a14610380578063d5abeb011461039c578063d8c6404b146103ba578063dd62ed3e146103d8578063f2fde38b1461040857610137565b8063715018a6146102be57806379cc6790146102c85780638da5cb5b146102e457806395d89b4114610302578063a457c2d71461032057610137565b8063313ce567116100ff578063313ce567146101f4578063372c12b114610212578063395093511461024257806342966c681461027257806370a082311461028e57610137565b806306fdde031461013c578063095ea7b31461015a57806318160ddd1461018a57806323b872dd146101a85780632adb5f4e146101d8575b600080fd5b610144610424565b6040516101519190611ba2565b60405180910390f35b610174600480360381019061016f9190611762565b6104b6565b6040516101819190611b87565b60405180910390f35b6101926104d4565b60405161019f9190611d64565b60405180910390f35b6101c260048036038101906101bd919061170f565b6104de565b6040516101cf9190611b87565b60405180910390f35b6101f260048036038101906101ed91906117a2565b6105d6565b005b6101fc6107b3565b6040516102099190611d7f565b60405180910390f35b61022c600480360381019061022791906116a2565b6107bc565b6040516102399190611b87565b60405180910390f35b61025c60048036038101906102579190611762565b6107dc565b6040516102699190611b87565b60405180910390f35b61028c60048036038101906102879190611847565b610888565b005b6102a860048036038101906102a391906116a2565b61089c565b6040516102b59190611d64565b60405180910390f35b6102c66108e4565b005b6102e260048036038101906102dd9190611762565b61096c565b005b6102ec6109e7565b6040516102f99190611b35565b60405180910390f35b61030a610a11565b6040516103179190611ba2565b60405180910390f35b61033a60048036038101906103359190611762565b610aa3565b6040516103479190611b87565b60405180910390f35b61036a60048036038101906103659190611762565b610b8e565b6040516103779190611b87565b60405180910390f35b61039a6004803603810190610395919061181a565b610bac565b005b6103a4610c7c565b6040516103b19190611d64565b60405180910390f35b6103c2610c82565b6040516103cf9190611b87565b60405180910390f35b6103f260048036038101906103ed91906116cf565b610c95565b6040516103ff9190611d64565b60405180910390f35b610422600480360381019061041d91906116a2565b610d1c565b005b60606003805461043390611f52565b80601f016020809104026020016040519081016040528092919081815260200182805461045f90611f52565b80156104ac5780601f10610481576101008083540402835291602001916104ac565b820191906000526020600020905b81548152906001019060200180831161048f57829003601f168201915b5050505050905090565b60006104ca6104c3610e14565b8484610e1c565b6001905092915050565b6000600254905090565b60006104eb848484610fe7565b6000600160008673ffffffffffffffffffffffffffffffffffffffff1673ffffffffffffffffffffffffffffffffffffffff1681526020019081526020016000206000610536610e14565b73ffffffffffffffffffffffffffffffffffffffff1673ffffffffffffffffffffffffffffffffffffffff168152602001908152602001600020549050828110156105b6576040517f08c379a00000000000000000000000000000000000000000000000000000000081526004016105ad90611c84565b60405180910390fd5b6105ca856105c2610e14565b858403610e1c565b60019150509392505050565b6105de610e14565b73ffffffffffffffffffffffffffffffffffffffff166105fc6109e7565b73ffffffffffffffffffffffffffffffffffffffff1614610652576040517f08c379a000000000000000000000000000000000000000000000000000000000815260040161064990611ca4565b60405180910390fd5b60005b82518110156106e3576001600660008584815181106106775761067661205c565b5b602002602001015173ffffffffffffffffffffffffffffffffffffffff1673ffffffffffffffffffffffffffffffffffffffff16815260200190815260200160002060006101000a81548160ff02191690831515021790555080806106db90611fb5565b915050610655565b5060005b8151811015610775576000600660008484815181106107095761070861205c565b5b602002602001015173ffffffffffffffffffffffffffffffffffffffff1673ffffffffffffffffffffffffffffffffffffffff16815260200190815260200160002060006101000a81548160ff021916908315150217905550808061076d90611fb5565b9150506106e7565b507f9824340d355882c6f24a03cf203373acc1041a901e7908f36040d1463ccc3e9182826040516107a7929190611b50565b60405180910390a15050565b60006012905090565b60066020528060005260406000206000915054906101000a900460ff1681565b600061087e6107e9610e14565b8484600160006107f7610e14565b73ffffffffffffffffffffffffffffffffffffffff1673ffffffffffffffffffffffffffffffffffffffff16815260200190815260200160002060008873ffffffffffffffffffffffffffffffffffffffff1673ffffffffffffffffffffffffffffffffffffffff168152602001908152602001600020546108799190611e40565b610e1c565b6001905092915050565b610899610893610e14565b8261109d565b50565b60008060008373ffffffffffffffffffffffffffffffffffffffff1673ffffffffffffffffffffffffffffffffffffffff168152602001908152602001600020549050919050565b6108ec610e14565b73ffffffffffffffffffffffffffffffffffffffff1661090a6109e7565b73ffffffffffffffffffffffffffffffffffffffff1614610960576040517f08c379a000000000000000000000000000000000000000000000000000000000815260040161095790611ca4565b60405180910390fd5b61096a6000611274565b565b600061097f8361097a610e14565b610c95565b9050818110156109c4576040517f08c379a00000000000000000000000000000000000000000000000000000000081526004016109bb90611cc4565b60405180910390fd5b6109d8836109d0610e14565b848403610e1c565b6109e2838361109d565b505050565b6000600560009054906101000a900473ffffffffffffffffffffffffffffffffffffffff16905090565b606060048054610a2090611f52565b80601f0160208091040260200160405190810160405280929190818152602001828054610a4c90611f52565b8015610a995780601f10610a6e57610100808354040283529160200191610a99565b820191906000526020600020905b815481529060010190602001808311610a7c57829003601f168201915b5050505050905090565b60008060016000610ab2610e14565b73ffffffffffffffffffffffffffffffffffffffff1673ffffffffffffffffffffffffffffffffffffffff16815260200190815260200160002060008573ffffffffffffffffffffffffffffffffffffffff1673ffffffffffffffffffffffffffffffffffffffff16815260200190815260200160002054905082811015610b6f576040517f08c379a0000000000000000000000000000000000000000000000000000000008152600401610b6690611d44565b60405180910390fd5b610b83610b7a610e14565b85858403610e1c565b600191505092915050565b6000610ba2610b9b610e14565b8484610fe7565b6001905092915050565b610bb4610e14565b73ffffffffffffffffffffffffffffffffffffffff16610bd26109e7565b73ffffffffffffffffffffffffffffffffffffffff1614610c28576040517f08c379a0000000000000000000000000000000000000000000000000000000008152600401610c1f90611ca4565b60405180910390fd5b80600760006101000a81548160ff0219169083151502179055507f4b683e173dee68d952d619638abca9a2aca56c6369610067d042ccd583924b4681604051610c719190611b87565b60405180910390a150565b60085481565b600760009054906101000a900460ff1681565b6000600160008473ffffffffffffffffffffffffffffffffffffffff1673ffffffffffffffffffffffffffffffffffffffff16815260200190815260200160002060008373ffffffffffffffffffffffffffffffffffffffff1673ffffffffffffffffffffffffffffffffffffffff16815260200190815260200160002054905092915050565b610d24610e14565b73ffffffffffffffffffffffffffffffffffffffff16610d426109e7565b73ffffffffffffffffffffffffffffffffffffffff1614610d98576040517f08c379a0000000000000000000000000000000000000000000000000000000008152600401610d8f90611ca4565b60405180910390fd5b600073ffffffffffffffffffffffffffffffffffffffff168173ffffffffffffffffffffffffffffffffffffffff161415610e08576040517f08c379a0000000000000000000000000000000000000000000000000000000008152600401610dff90611c04565b60405180910390fd5b610e1181611274565b50565b600033905090565b600073ffffffffffffffffffffffffffffffffffffffff168373ffffffffffffffffffffffffffffffffffffffff161415610e8c576040517f08c379a0000000000000000000000000000000000000000000000000000000008152600401610e8390611d24565b60405180910390fd5b600073ffffffffffffffffffffffffffffffffffffffff168273ffffffffffffffffffffffffffffffffffffffff161415610efc576040517f08c379a0000000000000000000000000000000000000000000000000000000008152600401610ef390611c24565b60405180910390fd5b80600160008573ffffffffffffffffffffffffffffffffffffffff1673ffffffffffffffffffffffffffffffffffffffff16815260200190815260200160002060008473ffffffffffffffffffffffffffffffffffffffff1673ffffffffffffffffffffffffffffffffffffffff168152602001908152602001600020819055508173ffffffffffffffffffffffffffffffffffffffff168373ffffffffffffffffffffffffffffffffffffffff167f8c5be1e5ebec7d5bd14f71427d1e84f3dd0314c0f7b2291e5b200ac8c7c3b92583604051610fda9190611d64565b60405180910390a3505050565b600660008473ffffffffffffffffffffffffffffffffffffffff1673ffffffffffffffffffffffffffffffffffffffff16815260200190815260200160002060009054906101000a900460ff1615801561104d5750600760009054906101000a900460ff165b1561108d576040517f08c379a000000000000000000000000000000000000000000000000000000000815260040161108490611c64565b60405180910390fd5b61109883838361133a565b505050565b600073ffffffffffffffffffffffffffffffffffffffff168273ffffffffffffffffffffffffffffffffffffffff16141561110d576040517f08c379a000000000000000000000000000000000000000000000000000000000815260040161110490611ce4565b60405180910390fd5b611119826000836115bb565b60008060008473ffffffffffffffffffffffffffffffffffffffff1673ffffffffffffffffffffffffffffffffffffffff1681526020019081526020016000205490508181101561119f576040517f08c379a000000000000000000000000000000000000000000000000000000000815260040161119690611be4565b60405180910390fd5b8181036000808573ffffffffffffffffffffffffffffffffffffffff1673ffffffffffffffffffffffffffffffffffffffff1681526020019081526020016000208190555081600260008282546111f69190611e96565b92505081905550600073ffffffffffffffffffffffffffffffffffffffff168373ffffffffffffffffffffffffffffffffffffffff167fddf252ad1be2c89b69c2b068fc378daa952ba7f163c4a11628f55a4df523b3ef8460405161125b9190611d64565b60405180910390a361126f836000846115c0565b505050565b6000600560009054906101000a900473ffffffffffffffffffffffffffffffffffffffff16905081600560006101000a81548173ffffffffffffffffffffffffffffffffffffffff021916908373ffffffffffffffffffffffffffffffffffffffff1602179055508173ffffffffffffffffffffffffffffffffffffffff168173ffffffffffffffffffffffffffffffffffffffff167f8be0079c531659141344cd1fd0a4f28419497f9722a3daafe3b4186f6b6457e060405160405180910390a35050565b600073ffffffffffffffffffffffffffffffffffffffff168373ffffffffffffffffffffffffffffffffffffffff1614156113aa576040517f08c379a00000000000000000000000000000000000000000000000000000000081526004016113a190611d04565b60405180910390fd5b600073ffffffffffffffffffffffffffffffffffffffff168273ffffffffffffffffffffffffffffffffffffffff16141561141a576040517f08c379a000000000000000000000000000000000000000000000000000000000815260040161141190611bc4565b60405180910390fd5b6114258383836115bb565b60008060008573ffffffffffffffffffffffffffffffffffffffff1673ffffffffffffffffffffffffffffffffffffffff168152602001908152602001600020549050818110156114ab576040517f08c379a00000000000000000000000000000000000000000000000000000000081526004016114a290611c44565b60405180910390fd5b8181036000808673ffffffffffffffffffffffffffffffffffffffff1673ffffffffffffffffffffffffffffffffffffffff16815260200190815260200160002081905550816000808573ffffffffffffffffffffffffffffffffffffffff1673ffffffffffffffffffffffffffffffffffffffff168152602001908152602001600020600082825461153e9190611e40565b925050819055508273ffffffffffffffffffffffffffffffffffffffff168473ffffffffffffffffffffffffffffffffffffffff167fddf252ad1be2c89b69c2b068fc378daa952ba7f163c4a11628f55a4df523b3ef846040516115a29190611d64565b60405180910390a36115b58484846115c0565b50505050565b505050565b505050565b60006115d86115d384611dbf565b611d9a565b905080838252602082019050828560208602820111156115fb576115fa6120bf565b5b60005b8581101561162b57816116118882611635565b8452602084019350602083019250506001810190506115fe565b5050509392505050565b60008135905061164481612496565b92915050565b600082601f83011261165f5761165e6120ba565b5b813561166f8482602086016115c5565b91505092915050565b600081359050611687816124ad565b92915050565b60008135905061169c816124c4565b92915050565b6000602082840312156116b8576116b76120c9565b5b60006116c684828501611635565b91505092915050565b600080604083850312156116e6576116e56120c9565b5b60006116f485828601611635565b925050602061170585828601611635565b9150509250929050565b600080600060608486031215611728576117276120c9565b5b600061173686828701611635565b935050602061174786828701611635565b92505060406117588682870161168d565b9150509250925092565b60008060408385031215611779576117786120c9565b5b600061178785828601611635565b92505060206117988582860161168d565b9150509250929050565b600080604083850312156117b9576117b86120c9565b5b600083013567ffffffffffffffff8111156117d7576117d66120c4565b5b6117e38582860161164a565b925050602083013567ffffffffffffffff811115611804576118036120c4565b5b6118108582860161164a565b9150509250929050565b6000602082840312156118305761182f6120c9565b5b600061183e84828501611678565b91505092915050565b60006020828403121561185d5761185c6120c9565b5b600061186b8482850161168d565b91505092915050565b6000611880838361188c565b60208301905092915050565b61189581611eca565b82525050565b6118a481611eca565b82525050565b60006118b582611dfb565b6118bf8185611e1e565b93506118ca83611deb565b8060005b838110156118fb5781516118e28882611874565b97506118ed83611e11565b9250506001810190506118ce565b5085935050505092915050565b61191181611edc565b82525050565b600061192282611e06565b61192c8185611e2f565b935061193c818560208601611f1f565b611945816120ce565b840191505092915050565b600061195d602383611e2f565b9150611968826120df565b604082019050919050565b6000611980602283611e2f565b915061198b8261212e565b604082019050919050565b60006119a3602683611e2f565b91506119ae8261217d565b604082019050919050565b60006119c6602283611e2f565b91506119d1826121cc565b604082019050919050565b60006119e9602683611e2f565b91506119f48261221b565b604082019050919050565b6000611a0c600883611e2f565b9150611a178261226a565b602082019050919050565b6000611a2f602883611e2f565b9150611a3a82612293565b604082019050919050565b6000611a52602083611e2f565b9150611a5d826122e2565b602082019050919050565b6000611a75602483611e2f565b9150611a808261230b565b604082019050919050565b6000611a98602183611e2f565b9150611aa38261235a565b604082019050919050565b6000611abb602583611e2f565b9150611ac6826123a9565b604082019050919050565b6000611ade602483611e2f565b9150611ae9826123f8565b604082019050919050565b6000611b01602583611e2f565b9150611b0c82612447565b604082019050919050565b611b2081611f08565b82525050565b611b2f81611f12565b82525050565b6000602082019050611b4a600083018461189b565b92915050565b60006040820190508181036000830152611b6a81856118aa565b90508181036020830152611b7e81846118aa565b90509392505050565b6000602082019050611b9c6000830184611908565b92915050565b60006020820190508181036000830152611bbc8184611917565b905092915050565b60006020820190508181036000830152611bdd81611950565b9050919050565b60006020820190508181036000830152611bfd81611973565b9050919050565b60006020820190508181036000830152611c1d81611996565b9050919050565b60006020820190508181036000830152611c3d816119b9565b9050919050565b60006020820190508181036000830152611c5d816119dc565b9050919050565b60006020820190508181036000830152611c7d816119ff565b9050919050565b60006020820190508181036000830152611c9d81611a22565b9050919050565b60006020820190508181036000830152611cbd81611a45565b9050919050565b60006020820190508181036000830152611cdd81611a68565b9050919050565b60006020820190508181036000830152611cfd81611a8b565b9050919050565b60006020820190508181036000830152611d1d81611aae565b9050919050565b60006020820190508181036000830152611d3d81611ad1565b9050919050565b60006020820190508181036000830152611d5d81611af4565b9050919050565b6000602082019050611d796000830184611b17565b92915050565b6000602082019050611d946000830184611b26565b92915050565b6000611da4611db5565b9050611db08282611f84565b919050565b6000604051905090565b600067ffffffffffffffff821115611dda57611dd961208b565b5b602082029050602081019050919050565b6000819050602082019050919050565b600081519050919050565b600081519050919050565b6000602082019050919050565b600082825260208201905092915050565b600082825260208201905092915050565b6000611e4b82611f08565b9150611e5683611f08565b9250827fffffffffffffffffffffffffffffffffffffffffffffffffffffffffffffffff03821115611e8b57611e8a611ffe565b5b828201905092915050565b6000611ea182611f08565b9150611eac83611f08565b925082821015611ebf57611ebe611ffe565b5b828203905092915050565b6000611ed582611ee8565b9050919050565b60008115159050919050565b600073ffffffffffffffffffffffffffffffffffffffff82169050919050565b6000819050919050565b600060ff82169050919050565b60005b83811015611f3d578082015181840152602081019050611f22565b83811115611f4c576000848401525b50505050565b60006002820490506001821680611f6a57607f821691505b60208210811415611f7e57611f7d61202d565b5b50919050565b611f8d826120ce565b810181811067ffffffffffffffff82111715611fac57611fab61208b565b5b80604052505050565b6000611fc082611f08565b91507fffffffffffffffffffffffffffffffffffffffffffffffffffffffffffffffff821415611ff357611ff2611ffe565b5b600182019050919050565b7f4e487b7100000000000000000000000000000000000000000000000000000000600052601160045260246000fd5b7f4e487b7100000000000000000000000000000000000000000000000000000000600052602260045260246000fd5b7f4e487b7100000000000000000000000000000000000000000000000000000000600052603260045260246000fd5b7f4e487b7100000000000000000000000000000000000000000000000000000000600052604160045260246000fd5b600080fd5b600080fd5b600080fd5b600080fd5b6000601f19601f8301169050919050565b7f45524332303a207472616e7366657220746f20746865207a65726f206164647260008201527f6573730000000000000000000000000000000000000000000000000000000000602082015250565b7f45524332303a206275726e20616d6f756e7420657863656564732062616c616e60008201527f6365000000000000000000000000000000000000000000000000000000000000602082015250565b7f4f776e61626c653a206e6577206f776e657220697320746865207a65726f206160008201527f6464726573730000000000000000000000000000000000000000000000000000602082015250565b7f45524332303a20617070726f766520746f20746865207a65726f20616464726560008201527f7373000000000000000000000000000000000000000000000000000000000000602082015250565b7f45524332303a207472616e7366657220616d6f756e742065786365656473206260008201527f616c616e63650000000000000000000000000000000000000000000000000000602082015250565b7f416e746920426f74000000000000000000000000000000000000000000000000600082015250565b7f45524332303a207472616e7366657220616d6f756e742065786365656473206160008201527f6c6c6f77616e6365000000000000000000000000000000000000000000000000602082015250565b7f4f776e61626c653a2063616c6c6572206973206e6f7420746865206f776e6572600082015250565b7f45524332303a206275726e20616d6f756e74206578636565647320616c6c6f7760008201527f616e636500000000000000000000000000000000000000000000000000000000602082015250565b7f45524332303a206275726e2066726f6d20746865207a65726f2061646472657360008201527f7300000000000000000000000000000000000000000000000000000000000000602082015250565b7f45524332303a207472616e736665722066726f6d20746865207a65726f20616460008201527f6472657373000000000000000000000000000000000000000000000000000000602082015250565b7f45524332303a20617070726f76652066726f6d20746865207a65726f2061646460008201527f7265737300000000000000000000000000000000000000000000000000000000602082015250565b7f45524332303a2064656372656173656420616c6c6f77616e63652062656c6f7760008201527f207a65726f000000000000000000000000000000000000000000000000000000602082015250565b61249f81611eca565b81146124aa57600080fd5b50565b6124b681611edc565b81146124c157600080fd5b50565b6124cd81611f08565b81146124d857600080fd5b5056fea26469706673582212208ecb30ae26e8714a7bd8b8c4964bd978338b8df703194b0b1840897ae272262b64736f6c63430008070033",
  "devdoc": {
    "kind": "dev",
    "methods": {
      "allowance(address,address)": {
        "details": "See {IERC20-allowance}."
      },
      "approve(address,uint256)": {
        "details": "See {IERC20-approve}. Requirements: - `spender` cannot be the zero address."
      },
      "balanceOf(address)": {
        "details": "See {IERC20-balanceOf}."
      },
      "burn(uint256)": {
        "details": "Destroys `amount` tokens from the caller. See {ERC20-_burn}."
      },
      "burnFrom(address,uint256)": {
        "details": "Destroys `amount` tokens from `account`, deducting from the caller's allowance. See {ERC20-_burn} and {ERC20-allowance}. Requirements: - the caller must have allowance for ``accounts``'s tokens of at least `amount`."
      },
      "decimals()": {
        "details": "Returns the number of decimals used to get its user representation. For example, if `decimals` equals `2`, a balance of `505` tokens should be displayed to a user as `5.05` (`505 / 10 ** 2`). Tokens usually opt for a value of 18, imitating the relationship between Ether and Wei. This is the value {ERC20} uses, unless this function is overridden; NOTE: This information is only used for _display_ purposes: it in no way affects any of the arithmetic of the contract, including {IERC20-balanceOf} and {IERC20-transfer}."
      },
      "decreaseAllowance(address,uint256)": {
        "details": "Atomically decreases the allowance granted to `spender` by the caller. This is an alternative to {approve} that can be used as a mitigation for problems described in {IERC20-approve}. Emits an {Approval} event indicating the updated allowance. Requirements: - `spender` cannot be the zero address. - `spender` must have allowance for the caller of at least `subtractedValue`."
      },
      "increaseAllowance(address,uint256)": {
        "details": "Atomically increases the allowance granted to `spender` by the caller. This is an alternative to {approve} that can be used as a mitigation for problems described in {IERC20-approve}. Emits an {Approval} event indicating the updated allowance. Requirements: - `spender` cannot be the zero address."
      },
      "name()": {
        "details": "Returns the name of the token."
      },
      "owner()": {
        "details": "Returns the address of the current owner."
      },
      "renounceOwnership()": {
        "details": "Leaves the contract without owner. It will not be possible to call `onlyOwner` functions anymore. Can only be called by the current owner. NOTE: Renouncing ownership will leave the contract without an owner, thereby removing any functionality that is only available to the owner."
      },
      "symbol()": {
        "details": "Returns the symbol of the token, usually a shorter version of the name."
      },
      "totalSupply()": {
        "details": "See {IERC20-totalSupply}."
      },
      "transfer(address,uint256)": {
        "details": "See {IERC20-transfer}. Requirements: - `recipient` cannot be the zero address. - the caller must have a balance of at least `amount`."
      },
      "transferFrom(address,address,uint256)": {
        "details": "See {IERC20-transferFrom}. Emits an {Approval} event indicating the updated allowance. This is not required by the EIP. See the note at the beginning of {ERC20}. Requirements: - `sender` and `recipient` cannot be the zero address. - `sender` must have a balance of at least `amount`. - the caller must have allowance for ``sender``'s tokens of at least `amount`."
      },
      "transferOwnership(address)": {
        "details": "Transfers ownership of the contract to a new account (`newOwner`). Can only be called by the current owner."
      }
    },
    "version": 1
  },
  "userdoc": {
    "kind": "user",
    "methods": {},
    "version": 1
  },
  "storageLayout": {
    "storage": [
      {
        "astId": 119,
        "contract": "src/ZwZToken.sol:ZwZToken",
        "label": "_balances",
        "offset": 0,
        "slot": "0",
        "type": "t_mapping(t_address,t_uint256)"
      },
      {
        "astId": 125,
        "contract": "src/ZwZToken.sol:ZwZToken",
        "label": "_allowances",
        "offset": 0,
        "slot": "1",
        "type": "t_mapping(t_address,t_mapping(t_address,t_uint256))"
      },
      {
        "astId": 127,
        "contract": "src/ZwZToken.sol:ZwZToken",
        "label": "_totalSupply",
        "offset": 0,
        "slot": "2",
        "type": "t_uint256"
      },
      {
        "astId": 129,
        "contract": "src/ZwZToken.sol:ZwZToken",
        "label": "_name",
        "offset": 0,
        "slot": "3",
        "type": "t_string_storage"
      },
      {
        "astId": 131,
        "contract": "src/ZwZToken.sol:ZwZToken",
        "label": "_symbol",
        "offset": 0,
        "slot": "4",
        "type": "t_string_storage"
      },
      {
        "astId": 7,
        "contract": "src/ZwZToken.sol:ZwZToken",
        "label": "_owner",
        "offset": 0,
        "slot": "5",
        "type": "t_address"
      },
      {
        "astId": 1186,
        "contract": "src/ZwZToken.sol:ZwZToken",
        "label": "whiteList",
        "offset": 0,
        "slot": "6",
        "type": "t_mapping(t_address,t_bool)"
      },
      {
        "astId": 1189,
        "contract": "src/ZwZToken.sol:ZwZToken",
        "label": "antiBotEnabled",
        "offset": 0,
        "slot": "7",
        "type": "t_bool"
      },
      {
        "astId": 1298,
        "contract": "src/ZwZToken.sol:ZwZToken",
        "label": "maxSupply",
        "offset": 0,
        "slot": "8",
        "type": "t_uint256"
      }
    ],
    "types": {
      "t_address": {
        "encoding": "inplace",
        "label": "address",
        "numberOfBytes": "20"
      },
      "t_bool": {
        "encoding": "inplace",
        "label": "bool",
        "numberOfBytes": "1"
      },
      "t_mapping(t_address,t_bool)": {
        "encoding": "mapping",
        "key": "t_address",
        "label": "mapping(address => bool)",
        "numberOfBytes": "32",
        "value": "t_bool"
      },
      "t_mapping(t_address,t_mapping(t_address,t_uint256))": {
        "encoding": "mapping",
        "key": "t_address",
        "label": "mapping(address => mapping(address => uint256))",
        "numberOfBytes": "32",
        "value": "t_mapping(t_address,t_uint256)"
      },
      "t_mapping(t_address,t_uint256)": {
        "encoding": "mapping",
        "key": "t_address",
        "label": "mapping(address => uint256)",
        "numberOfBytes": "32",
        "value": "t_uint256"
      },
      "t_string_storage": {
        "encoding": "bytes",
        "label": "string",
        "numberOfBytes": "32"
      },
      "t_uint256": {
        "encoding": "inplace",
        "label": "uint256",
        "numberOfBytes": "32"
      }
    }
  }
}